:020000040800F2
:100000000023002035020008072600087721000899
:100010000326000841200008C33200080000000049
:100020000000000000000000000000008D2C00080F
:100030004520000800000000F52A0008A12D000856
:100040004F0200084F0200084F0200084F0200084C
:100050004F0200084F0200084F0200084F0200083C
:100060004F0200084F0200084F0200084F0200082C
:100070004F0200084F0200084F0200084F0200081C
:100080004F0200084F0200084F0200084F0200080C
:100090004F0200084F0200084F0200084F020008FC
:1000A0004F0200084F0200084F0200084F020008EC
:1000B0004F020008152E00084F0200084F020008EA
:1000C0004F0200084F0200084F0200084F020008CC
:1000D0004F020008D92F00084F020008A530000881
:1000E0004F0200084F0200084F02000800F002F81B
:1000F00000F090F80AA090E8000C82448344AAF132
:100100000107DA4501D100F085F8AFF2090EBAE82F
:100110000F0013F0010F18BFFB1A43F0010318473B
:10012000304C0000504C0000103A24BF78C878C111
:10013000FAD8520724BF30C830C144BF04680C60ED
:10014000704700000023002400250026103A28BF35
:1001500078C1FBD8520728BF30C148BF0B60704739
:100160006E2900F08383702900F06B81662903F00B
:100170007F87652903F07C87672903F079876129E8
:1001800003F0788703681B0A28BF41F080016929C2
:1001900000F0DC80642900F0D980752900F0D68059
:1001A0006F2900F07A84782900F03781E92900F07E
:1001B0001584E42900F01284F52900F00F84EF295A
:1001C00000F07784F82900F036810368DB0928BF46
:1001D00041F08001632900F08483732900F0898352
:1001E000E32901F05180F32901F056800020704787
:1001F0001FB500F069FC04000020002103F00CFF93
:10020000401C60600020002103F01CFFE0601FBD67
:1002100010B510BD01F06CF81146FFF7E9FF03F0CF
:10022000A3FC01F03DF903B4FFF7F2FF03BC03F0B8
:100230003CFA00000948804709480047FEE7FEE70E
:10024000FEE7FEE7FEE7FEE7FEE7FEE7FEE7FEE786
:1002500004480549054A064B70470000A52D0008D3
:10026000ED000008001D002000230020001F0020DA
:10027000001F0020704710B5044600F05DFA0068CA
:10028000005DC00602D504F1200010BD204610BD5F
:100290001CB50C46064B7B4469460090204600F096
:1002A000FEFA04460020694600F00CFB20461CBD07
:1002B0002B0600000FB4044910B503AA029800F001
:1002C0001DFB10BC5DF814FB2C0000200FB41CB506
:1002D000084B06AA7B4469460090059800F0DFFAB7
:1002E00004460020694600F0EDFA20461CBC5DF88B
:1002F00014FB0000ED05000070B50C460546012A10
:1003000005D02878800600D5EA69002302E00123A1
:1003100005E05B1C934202D2E05C0028F9D1A86999
:10032000E618C01AA861286A18442862284600F016
:100330000BFA04E0D5E9012114F8010B9047B4420F
:10034000F8D3284600F016FA70BD00002DE9F04100
:100350000646002410687529314616A510D000F015
:100360001AFA002802DA404213A507E031688A072A
:1003700001D512A502E0490704D511A5012401E029
:1003800000F012FA00210A2206F1240709E0B0FB6E
:10039000F2FCB0FBF2F302FB1C003030785418463C
:1003A000491C0028F3D123462A463046BDE8F041D7
:1003B00000F003BA000000002D0000002B00000038
:1003C00020000000F0B40D460188090502D5214C3B
:1003D0007C4402E01F4C7C440E34002100F12406D2
:1003E00008E002F00F071209E75D42EA03721B09F9
:1003F0007754491C52EA0307F3D10278002312070D
:1004000004D5702D06D009B1022311342246F0BC68
:1004100000F0D3B901231034F8E770B504460D4657
:100420002146106800F0C0F9024629462046BDE882
:1004300070400023C6E7D21D22F00703D3E9002352
:10044000C0E70368126843F0200303600823C36118
:100450000023B7E7134800002DE9F05F8946044602
:100460004FF0000ADFF874B1FB44C0F820A020462A
:10047000E1688847002874D0252806D0D4E90121F6
:100480009047206A401C2062F1E700265F46204624
:10049000E16888472028054607DB312D05D2781909
:1004A00010F8200C08B10643F1E7B00701D526F09B
:1004B0000406C4F81CA00027C4F818A02A2D09D0EF
:1004C000284603F0EBF838B304EB8708303DC8F852
:1004D000185019E059F8041B204604EB870291617B
:1004E000E1688847012F054618D1E069002820DA25
:1004F00026F020061DE0D8F8180000EB800005EB80
:1005000040003038C8F818002046E16888470546A2
:1005100003F0C4F80028EED1012F0AD02E2D08D107
:100520002046E16888477F1C0546022F46F02006DA
:10053000C4DBA069002803DA404246F00106A0614E
:10054000F00701D026F010066C2D0BD0682D09D0D5
:100550004C2D39D06A2D35D0742D35D07A2D33D02D
:1005600016E038E0E1682F4620468847B842054645
:1005700009D16C2F26D04FF48060E16806432046F5
:100580008847054604E06C2F1AD04FF4807006436C
:100590000DB3A5F14100192802D8203546F40066B4
:1005A0004A462946204626604E46FFF7D9FD80B1CF
:1005B00001280BD0F61D26F0070000F1080956E7C8
:1005C0004020E4E78020D8E70020D6E706F10409C0
:1005D0004DE7284652E7206ABDE8F09FA347000098
:1005E00010B5431C02E010F8011B71B18107FAD16C
:1005F0004FF0013202C88C1A8C4314EAC211F9D0B0
:10060000C01A0A0603D0C01E10BDC01A10BD0A04CD
:1006100001D0801E10BD0902FCD0401E10BD4FF05D
:1006200000020429C0F0128010F0030C00F01B80BF
:10063000CCF1040CBCF1020F18BF00F8012BA8BFCD
:1006400020F8022BA1EB0C0100F00DB85FEAC17C91
:1006500024BF00F8012B00F8012B48BF00F8012B44
:1006600070474FF0000200B5134694469646203975
:1006700022BFA0E80C50A0E80C50B1F12001BFF45B
:10068000F7AF090728BFA0E80C5048BF0CC05DF8C1
:1006900004EB890028BF40F8042B08BF704748BF0F
:1006A00020F8022B11F0804F18BF00F8012B704783
:1006B0004FF0013C50F8042B51F8043B9A4221D1F1
:1006C000A2EB0C03934313EACC1317D150F8042B7D
:1006D00051F8043B9A4215D1A2EB0C03934313EA61
:1006E000CC130BD150F8042B51F8043B9A4209D19A
:1006F000A2EB0C03934313EACC13DBD04FF00000C2
:10070000704700BFD01A01BAB1FA81F101F01801A7
:1007100022FA01F0CB40C1F12001DBB2C0B2C01A15
:100720002CFA01F3D11A914311EAC311E6D17047B3
:10073000704770477047704710B500F0C5F9001D4D
:1007400010BD00BFD538000070B50446856900684B
:10075000C10601D5302600E02026C00707D070BDB5
:10076000D4E9012130469047206A401C20626D1E6A
:10077000F6D570BD70B5044685690078C00707D10D
:1007800070BDD4E9012120209047206A401C2062DE
:100790006D1EF6D570BD09684A0501D540B2704797
:1007A000C905FCD500B2704709684A0501D5C0B239
:1007B0007047C905FCD580B270472DE9F0470D465A
:1007C00099469246044600F124080168880604D53B
:1007D000E06921F01001216000E00120A84201DD64
:1007E000471B00E00027A1697A1902EB0900081AEB
:1007F000A0612078C00602D42046FFF7A5FF00269E
:1008000008E0D4E901211AF806009047206A401C4C
:10081000761C20624E45F4DB2078C0060AD52046BF
:10082000FFF792FF06E0D4E9012130209047206ACB
:10083000401C2062381EA7F10107F4DC07E0D4E970
:10084000012118F805009047206A401C2062281EEC
:10085000A5F10105F3DC2046FFF78CFF20780006A8
:1008600002D50220BDE8F0870120FBE7116802688D
:10087000006A530501D508700AE0D30501D5088048
:1008800006E0130603D5C217C1E9000200E00860C4
:100890000120704701694A1C02610878704700B561
:1008A0008FB0CDE901310021059105497944CDE9A9
:1008B000031011466846FFF7CFFD0FB000BD0000E2
:1008C000E5FFFFFF0A6802F8010B0A60704710B5E8
:1008D000436913B1AFF3008001E0FFF70DFD012084
:1008E00010BD127800F124010A7000224A70012222
:1008F000EDE711684FF0FF32E9E70000074B70B5F4
:100900000D467B44FFF7CBFF0446284600F0C8FCA9
:1009100010B14FF0FF3070BD204670BDC72E0000F3
:100920002DE9FF5F15468A460446DFF8AC80F8449F
:100930000027D8E900103E46CDE9001010E03AF853
:1009400016106A4602A800F0AFFC411C07D02178BF
:10095000890603D5E269391891420DD80744761CFF
:100960002078800602D5E069B84205DDAE42E6DBBC
:100970003AF816000028E2D1A069C01BA061204609
:10098000FFF7E2FED8E90010CDE90010002017E0E3
:100990003AF818106A4602A800F086FCB0F1FF3F52
:1009A00081460BD000250DF1080B05E0D4E90121AB
:1009B0001BF8050090476D1C4D45F7D308F1010069
:1009C000B0428046E4DB206A384420622046FFF7CC
:1009D000D1FEBDE8FF9F0000EE4200002DE9F0418E
:1009E0008046D21D22F007020025D2E90002F52937
:1009F00015A614D0011E72F1000106DA0023D0EB17
:100A0000030063EB020211A608E0D8F800108B0780
:100A100001D50FA602E0490701D50EA60125114612
:100A2000002408F1240704E000F052F830323A556F
:100A3000641C50EA0102F7D12B463246214640465B
:100A4000BDE8F041FFF7B9BE000000002D00000036
:100A50002B0000002000000030B4002100F124042D
:100A600008E002F00705D208303542EA4372DB089D
:100A70006554491C52EA0305F3D10468002310A20F
:100A8000250707D5A40600D421B1C46901230DA20E
:100A9000641EC46130BCFFF790BE10B50446214609
:100AA0001068FFF781FE02462046BDE81040002393
:100AB000D2E7D21D22F00701D1E90023CCE70000E4
:100AC000000000003000000000487047C01C0020FB
:100AD00030B5B0F10A024FEA900E71F100034EEA10
:100AE000817EB0EB0E0061EB91014FEA101E4EEAE1
:100AF000017E10EB0E0041EB11114FEA102E4EEA71
:100B0000016E10EB0E0041EB11214FEA104E4EEA40
:100B1000014E10EB0E0041EB1141401841F1000174
:100B20004FEAD00040EA41704FEAD10110EB800556
:100B30004FEA810444EA907444EB01046D1944EBDC
:100B40000404521BA3414FF0000348BF0A3200D5F2
:100B500030BD401C41F1000130BD70472DE9FF4F11
:100B60000C461E464FF0FF378BB0D2E90001DDF88E
:100B700060800A908A46C1F30A5505B93D460021B6
:100B800008464FF00000BAF1000F00F4400005DA0B
:100B900000EB80004FF4400101EA50004FEA905909
:100BA000B9F1010F00DDB9460A9850EA4A000ED0AB
:100BB00044F61050A5F2FF3545432F14B8F1000F4D
:100BC0001ED07542291E1EDDC9F100021CE0B8F1DD
:100BD000010F4FF0000001D0302103E0F24305E0A7
:100BE0002154401CB042FBDB30460022002121543E
:100BF0000B99C1F80880C1E900200FB0BDE8F08F63
:100C0000BD1B6D1CDEE74A4600DA694206A800F00B
:100C1000D5FB06AB93E8070003AB83E8070050461B
:100C20000A9900F046FC8DE80700A0F500501F3837
:100C300000900398002D0ADD42F21F014A46084445
:100C4000002303A90390684600F0AFFE09E0A0F579
:100C500000504A461F38002303A90390684600F05D
:100C6000B9FE8DE807000004000C03D04FF0FF3000
:100C7000410800E01046B8F1000F03D000220092B6
:100C800015461EE0751E05D4FFF722FF303262556F
:100C90006D1EF9D5B3460122084302D000227F1C05
:100CA00004E02078302801D100227F1E002A099715
:100CB00084D01DE0112D07DAFFF70AFF30326255AC
:100CC0006D1C50EA0102F5D1084302D00098C8B16A
:100CD0000EE00021681E05E0235C625C6354225430
:100CE000401E491C8142F7DBAB46A81B401E099001
:100CF000002004F80B000B98099AC0F80880C0E99E
:100D0000002B7AE711264FF0000857E72DE9F04F46
:100D100088460446D21D22F0070191B0D1E90001B6
:100D2000CDE90A0102F0A6FC02460B98C00F01D0E3
:100D30002D2007E02068810701D52B2002E020212B
:100D400001EAC000032A099001D0072A05DB034607
:100D50004146204600F0F2FA0BE12078800601D5EA
:100D6000E06900E00620B8F1650F814606D0B8F1D1
:100D7000660F18D0B8F1670F70D131E00020B9F1DB
:100D8000110F009001DB112301E009F101030AAA10
:100D900001A90CA8FFF7E2FEDDE90C70002609F1BD
:100DA0000105834647E001204B4600904FF0004785
:100DB0000AAA01A90CA8FFF7D1FEDDE90DB00C9934
:100DC0005D46002610B909F101000D18B9EB0500C8
:100DD00003D4C0F1FF3609F10105A5EB09002BE0B2
:100DE000B9F1010F01DA4FF001090020B9F1110F3B
:100DF0000090484601DD112300E003460AAA01A93C
:100E00000CA8FFF7ABFEDDE90C704D4600268346CB
:100E1000207800070AD4AB4500DA5D4601A8012D11
:100E200004DD411911F8011C302907D04F4502DAC1
:100E300017F1040F04DA012082460FE06D1EEEE781
:100E4000002F02DCED1B3E4403E0781CA84200DDCD
:100E50007D1CB81B00F1010A4FF000472078000705
:100E600003D4AA4501DB4FF0FF3A0021B7F1004F50
:100E70000DF143088DF8431024D002202B23002FBE
:100E800001DA7F422D230A21021EA0F1010000DCBD
:100E90005FB197FBF1FC97FBF1F201FB1C7C17465D
:100EA0000CF1300C08F801CDEEE7A8F10100037059
:100EB0002188090501D5452100E06521A0F101083F
:100EC00000F8011C09980FA9A1EB0807FF1D00B14C
:100ED0000120411901EBEA70A1693844081A401E4B
:100EE000A0612078C00602D42046FFF72DFC0998A7
:100EF00028B1D4E901219047206A401C2062207863
:100F0000C00622D52046FFF71FFC1EE0002E04DBA2
:100F1000B34502DD01A8805D00E03020D4E9012165
:100F20009047206A401C2062761CAAF101005FEA0B
:100F3000000A0AD1FFF7C8FDC0680168405CD4E927
:100F400001219047206A401C2062281EA5F101055E
:100F5000DCDC07E0D4E9012118F8010B9047206A96
:100F6000401C2062381EA7F10107F3DC2046FFF782
:100F700001FC032011B041E62DE9F04F04460D4677
:100F8000D21D22F0070089B0D0E9009748463946C3
:100F900002F070FB0246F80F01D02D2307E0206815
:100FA000810701D52B2302E0202101EAC0038DF83F
:100FB00020300BB1012000E00020032A824601D03E
:100FC000072A04DB2946204600F0B8F93FE12078E3
:100FD000800601D40D2500E0E569C7F30A560D2D02
:100FE00049DA00214FEA175B08464FF00000002F56
:100FF00000F4400007DA00EB80004FF4400100EB02
:10100000D07001EA60008115012901DD4FF0FF3148
:1010100000224FEA850CBCF1180F06D31346ACF141
:1010200018004FF08052C24003E04FF4801323FABF
:101030000CF30CF10C0CBCF1200F04D3ACF1200C20
:1010400009FA0CF001E007FA0CF000294FF0004813
:1010500001DD18B90FE00ED140450CD319EB0209A0
:101060005F4121B9404502D19F4329EA0209BBEB08
:10107000175F00D0761C2088000502D57B48784495
:1010800002E07A487844193808AA302302F80A3076
:10109000037C0AF10101002E0AF1020A53546A4648
:1010A00002DC4FF0300101E04FF031014FF0010858
:1010B0008DF8001002D0A6F2FF3603E059EA47018E
:1010C00000D06B4E002D02DC2178090704D54FF0CB
:1010D00002082E218DF80110C44600210BE0C7F351
:1010E00003433F01C35C491C6D1E02F8083005290B
:1010F00008F1010801DA002DF1DC00210CE000EB21
:101100001973491C1B786D1E082902F808304FEA34
:10111000091908F1010801DA002DF0DC21688B06BD
:1011200002D516E0A8F10108E04505DD02EB080351
:1011300013F8013C302BF5D0B8F1000F09DD02EBBC
:10114000080313F8013C2E2B03D1090701D4A8F1A1
:101150000108002D05DD3E2102F808106D1E08F182
:101160000108407C002E02F8080008F1010804DAAA
:101170002D20764202F8080002E02B2002F8080039
:101180000A214FF47A70864208F101080BDB96FBC6
:10119000F0F3303302F8083096FBF0F308F1010861
:1011A00000FB136601E0642E0CDB642096FBF0F379
:1011B000303302F8083096FBF0F308F1010800FB29
:1011C000136601E00A2E06DB96FBF1F0303002F8E0
:1011D000080008F1010896FBF1F001FB10603030C7
:1011E00002F80800A16908F1010808EB050202EB0A
:1011F0000A00081AA0612078C00602D42046FFF732
:10120000A3FA216A08AE01EB0A00206204E0D4E9E7
:10121000012116F8010B9047BAF1010AF7D22078A4
:10122000C00602D52046FFF78FFA6E4609E016F891
:10123000010B3E280FD0D4E901219047206A401CC1
:101240002062B8F10108F2D22046FFF793FA09B004
:101250000320BDE8F08F206A2844206203E0D4E92F
:101260000121302090476D1EEBD3F8E7B93B000019
:1012700002FCFFFF10B5436913B1AFF3008001E03A
:10128000FFF74EFB012010BD128800F1240182847B
:101290000022C2840122EDE711684FF0FF32E9E736
:1012A000007B00F08000704770B516460C4605467E
:1012B000FFF742FA036893F80101012806D0FF2CDA
:1012C0000FD8185D68B101202C7070BDD3F80701EC
:1012D0003246214603F2071303442846BDE8704016
:1012E00018474FF0FF3070BD00487047A01C002029
:1012F0007546FFF7F9FFAE4605006946534620F0F4
:101300000700854618B020B5FEF7A2FFBDE82040D3
:101310004FF000064FF000074FF000084FF0000BB1
:1013200021F00701AC46ACE8C009ACE8C009ACE864
:10133000C009ACE8C0098D46704700002DE9F041B6
:101340001F46044603260168072A01F4006004DBF7
:1013500008B116A505E016A503E008B115A500E043
:1013600015A521F010002060A069C01EA0610FB17A
:10137000401EA0612046FFF7E7F94FB1D4E90121F3
:1013800038469047206A401C2062C01C206206E05C
:10139000206AFAE7D4E9012115F8010B9047761E7F
:1013A000F8D22046FFF7E6F9BDE8F0814E414E0045
:1013B0006E616E00494E4600696E66002DE9F04789
:1013C000814616468AB0354878440DC88DE80D0030
:1013D00032487844801C03AC0DC884E80D0041F607
:1013E0009B300844372190FBF1F290FBF1F5A5F119
:1013F000800501FB12041B3C02D56442012000E081
:101400000020DFF898A080460027FA44AAF1BE0A1F
:101410000EE0E0070AD03246684607EB4701012399
:101420000AEB810100F0D6FA8DE8070064107F1CFA
:10143000002CEED1194F7F44AE3F19E0E80715D0DC
:1014400007EB04100DF1180A90E80E008AE80E0070
:10145000C068F04201D1981908903246012306A9CC
:1014600003A800F0B7FA03AB83E807006D10641C13
:10147000002DE3D14FF0010332466946B8F1000F69
:1014800003A802D000F091FA01E000F0A3FAC9E944
:101490000001C9F808200AB0BDE8F0870039000053
:1014A00010B50446AFF300802046BDE81040FEF7BB
:1014B000BABE5FEA400C08BF91F0000F4FEA8C23E0
:1014C0004FEAC12243EA51514FEA1C5018BF00F5C0
:1014D000F0404FEA300018BF41F000415FEA6C5C19
:1014E00000F02980BCF1FF3F08BF40F0804070470A
:1014F000130C06BF12044FF0100C4FF0000C130E2B
:1015000004BF12020CF1080C130F04BF12010CF1FE
:10151000040C930F04BF92000CF1020CD30F04BF14
:1015200052000CF1010C11464FF00002A0F11F0017
:10153000A0EB0C00704711F0004F08BF704731F06E
:1015400000413FF4D5AF0B0C06BF09044FF0100C5F
:101550004FF0000C0B0E04BF09020CF1080C0B0F2E
:1015600004BF09010CF1040C8B0F04BF89000CF1BE
:10157000020CCB0F04BF49000CF1010CCCF120038D
:10158000A0EB0C0022FA03F302FA0CF241EA030189
:1015900000F10100704720F07F4C80EA030023F047
:1015A0007F47ACEB070303F57C5300F0004003F1E9
:1015B000FF032DE980494FEA154B09B44FEA144364
:1015C00025EA0B4E24EA03480FF2042606EB132704
:1015D00049083E785FEA320203FB0667C7F5000759
:1015E00007FB06F64FEA54374FEAD64606F10206E5
:1015F00007FB066CCCF1005C4FEA1C472CEA074C59
:1016000007FB06F40CFB06F504EB15464FEA9616AD
:1016100034BF00204FF000404FEAD13706FB07FCF3
:101620004FEA1C4C0CFB0BF7D21B03FB0CF761EBD6
:1016300007010CFB0EF7B0EB074072EB17420CFBF7
:1016400008F734BFA2EB0742B2EB074261EB174148
:101650004FEA0C444FEA910706FB07FC4FEA1C4C8B
:101660000CFB0BF7B0EBC74072EB573203FB0CF7E8
:1016700034BFA2EBC742B2EBC74261EB57310CFB60
:101680000EF7B0EBC70072EB57720CFB08F734BFD4
:10169000A2EBC702B2EBC70261EB5771039F4FEA9F
:1016A000816141EA921104EBCC044FEAD1374FEA51
:1016B000826206FB07FC42EA90124FEA80604FEA22
:1016C0001C4C0CFB0BF7D21B03FB0CF761EB070167
:1016D0000CFB0EF7B0EB074072EB17420CFB08F760
:1016E00034BFA2EB0742B2EB074261EB17414FEA6E
:1016F0008C554FEA910704EB9C2406FB07FC4FEA4C
:101700001C4C0CFB0BF7B0EBC74072EB573203FBE2
:101710000CF734BFA2EBC742B2EBC74261EB5731C3
:101720000CFB0EF7B0EBC70072EB57720CFB08F71F
:1017300034BFA2EBC702B2EBC70261EB577115EBE6
:101740004C254FEA816141EA92114FEA82624FEAE9
:10175000D13742EA901206FB07FC44F100044FEA3D
:1017600080604FEA1C4C0CFB0BF7D21B03FB0CF701
:1017700061EB07010CFB0EF7B0EB074072EB174271
:101780000CFB08F734BFA2EB0742B2EB074261EB58
:10179000174115EB1C154FEA813141EA92414FEA9E
:1017A000823242EA90424FEA80304FEA0C7644F1AE
:1017B000000448EA03434EEA0B484FF0000EB2EB38
:1017C000080C71EB030724BF624639464EEB0E0E40
:1017D0004FF0000B0018524149414BEB0B0BB2EBA1
:1017E000080C71EB03077BF1000B24BF62463946FE
:1017F0004EEB0E0E4FF0000B0018524149414BEBDF
:101800000B0BB2EB080C71EB03077BF1000B24BF51
:10181000624639464EEB0E0E51EA020718BF46F0FB
:10182000010616EB0E7655F1000254F1000103D5C6
:10183000BDE88901BDE80088BDE88901BDE8004830
:10184000B619524141EB0101A3F1010370478080B9
:101850007F7E7D7C7B7A797877767675747372710A
:1018600071706F6E6E6D6C6C6B6A6A6968686766C2
:1018700066656464636362616160605F5F5E5E5D54
:101880005D5C5C5B5B5A5A595958585757565655C8
:1018900055555454535352525251515050504F4F2A
:1018A0004F4E4E4D4D4D4C4C4C4B4B4B4A4A4A497A
:1018B00049494848484747474746464645454544BD
:1018C0004444444343434342424242414141002B4A
:1018D0009C4630D477002BD01CB54FEA370703B4B1
:1018E0004FF010004FF01001BAF1000F06D0BCF11C
:1018F000000FDCBF40F0080040F008014FF000008E
:101900000FBCBDE810400BF1010BBBF1010F08BF8C
:101910005FEA170722BF12F1010211F101014FF036
:10192000004143F1000300F0004043EA000070472B
:10193000F9D35708D0E746EA064613F1400F4FEABD
:1019400016461FDD13F1200FDFBF16430A460021A4
:1019500020335B42BED0C3F1200746EA064602FAB6
:1019600007F74FEA164646EA0706C3F1200722FAB0
:1019700003F201FA07F721FA03F14FF0000342EAFC
:101980000702A7E746EA020646EA06464FEA164677
:1019900046EA0106BCBF46EA0646360C4FF0000395
:1019A0004FF000024FF0000194E72DE9804C9A4679
:1019B000934670B491E8380007C831EA400C48BF3C
:1019C00034EA430C03D5FFF7E6FDFFF780FFF0BCD8
:1019D000BDE8008C2DE9804C9A46934670B491E89E
:1019E000380007C810F0804F08BF13F0804F03D1B4
:1019F00000F005F8FFF76BFFF0BCBDE8008C20F0AD
:101A00007F4780EA030023F07F4C07EB0C03A3F52C
:101A10007C5300F00040A3F1FE0392F0000F00F0B1
:101A2000B38095F0000F00F077802DE901494FEA6F
:101A300011404FEA144621EA004800FB06FC24EA64
:101A4000064708FB06F607FB08F800FB07F718EB4C
:101A500006484CEB164C4FEA124B18EB07484FEA7E
:101A600015464CEB174022EA0B4E0BFB06FC25EA11
:101A700006470EFB06F607FB0EFE0BFB07F71EEBF9
:101A8000064E4CEB164C4FF000061EEB074E4CEB8F
:101A9000174B18EB0B0840F1000018EB0E0B58EB3E
:101AA000000840F100008F1A4FF000013CBFC9430D
:101AB000661B14BFB5EB040C00213CBFC943F61BE9
:101AC0004FEA17444EEA8E0E27EA04454FEA1C47B8
:101AD00004FB07622CEA074C05FB07F70CFB05F635
:101AE00004FB0CFC16EB074642EB174216EB0C46C8
:101AF00042EB1C421BEB060658EB0202414146EA50
:101B00009E0601D5BDE80189B619524141EB01019C
:101B1000A3F10103BDE801894FEA14454FEA1147DB
:101B200024EA054621EA074C05FB07F406FB07F704
:101B30000CFB06F105FB0CFC11EB074144EB1744D1
:101B40004FEA124711EB0C4144EB1C4422EA074CCC
:101B500005FB07F206FB07F70CFB06F605FB0CFC82
:101B600016EB074642EB174216EB0C4642EB1C45C0
:101B70006A1854F1000148BF7047B619524141EB51
:101B80000101A3F10103704795F0000F37D04FEA30
:101B900011424FEA144721EA024624EA074C02FBAD
:101BA00007F106FB07F70CFB06F402FB0CFC14EB39
:101BB000074441EB17414FEA154714EB0C4441EB46
:101BC0001C4125EA074C02FB07F506FB07F70CFB57
:101BD00006F602FB0CFC16EB074645EB174516EB29
:101BE0000C4645EB1C42121951F1000148BF7047E9
:101BF000B619524141EB0101A3F1010370474FEACD
:101C000014454FEA114724EA054621EA074C05FB33
:101C100007F106FB07F70CFB06F24FF0000605FB89
:101C20000CFC12EB074241EB174112EB0C4251EB5B
:101C30001C4148BF7047921841EB0101A3F1010319
:101C4000704700003EB5054600F020FD3DB1042D73
:101C500005D0052D00D11EE0062D00D138E02B481F
:101C6000006802902AA1029800F0DDFD00240CE03B
:101C70002BA0FEF71FFB4FF47A7001F03BFD032C05
:101C800001D104203EBD601CC4B230A000F0C6F8F3
:101C90000028EDD000BF1D48001D006801902CA158
:101CA000019800F0C0FD00240CE02DA0FEF702FB1F
:101CB0004FF47A7001F01EFD032C01D10520E1E7FD
:101CC000601CC4B221A000F0A9F80028EDD000BF2C
:101CD0000E4808300068009025A1009800F0A3FD90
:101CE00000240CE026A0FEF7E5FA4FF47A7001F02C
:101CF00001FD032C01D10620C4E7601CC4B213A06F
:101D000000F08CF80028EDD00020BBE7B44B0008B1
:101D100057616974205443502020202000000000A7
:101D200041542B43495053544152543D2254435043
:101D3000222C227777772E62696C6962696C692E32
:101D4000636F6D222C38300D0A0A00004F4B0000E3
:101D500057616974204349504D4F444500000000CD
:101D600041542B4349504D4F44453D310D0A0A0023
:101D7000576169742043495053454E4400000000A8
:101D800041542B43495053454E440D0A0A0000006C
:101D900010B504466320184908707CB10221174829
:101DA00000F0E5F9642001F0A5FC0221134800F0E1
:101DB000E0F94FF47A7001F09DFC02E010A0FEF70C
:101DC00079FA1248008800F4004098B100200F49C9
:101DD00008800FA1104800F009FC30B14FF4FA61FF
:101DE0000D48FEF71CFC012010BD4FF4FA610A48B3
:101DF000FEF715FC0020F7E732000020000C014040
:101E000041542B5253540A0A0000000030000020B5
:101E10007265616479000000E800002010B5044696
:101E20000F48008800F40040B8B100200C49088039
:101E30000C490DA002F006F821460A4800F0D6FB36
:101E400030B14FF4FA610748FEF7E9FB012010BDFD
:101E50004FF4FA610348FEF7E2FB0020F7E70000C9
:101E600030000020E80000202573000038B505464A
:101E7000002400F00BFC3048006800902FA100986F
:101E800000F0D1FC3DB1012D05D0022D00D117E0AD
:101E9000032D00D129E000240CE02DA0FEF70AFA62
:101EA0004FF47A7001F026FC032C01D1012038BDDB
:101EB000601CC4B228A0FFF7B1FF0028EDD000BF1E
:101EC00000240CE025A0FEF7F5F94FF47A7001F03C
:101ED00011FC032C01D10220E9E7601CC4B21EA052
:101EE000FFF79CFF0028EDD000BF002417E01F4A39
:101EF000A2F11E011EA0FEF7DDF94FF47A7001F089
:101F0000F9FB4FF47A7001F0F5FB4FF47A7001F0B1
:101F1000F1FB052C01D10320C9E7601CC4B21AA053
:101F2000FFF77CFF0028E2D00E22002119A001F06B
:101F30007DFA0020BBE70000A44B000857616974DC
:101F400020666F7220666565646261636B000000E5
:101F500041540D0A0A0000004F4B000041542B432E
:101F6000574D4F44453D330D0A0A0000C200002082
:101F700041542B43574A41503D222573222C2225A0
:101F800073220D0A0A000000434F4E4E454354454C
:101F90004400000057694669206973207365740026
:101FA0003EB500242BE000F071FB012C04D0022C84
:101FB0000AD0032C1AD110E014480068029014A132
:101FC000029800F030FC12E01048001D00680190FB
:101FD00013A1019800F027FC09E00C4808300068C4
:101FE000009013A1009800F01EFC00E000BF00BFAD
:101FF0004FF47A7001F07EFB0120FFF7C9FE204606
:10200000FFF720FE041ECED13EBD0000C04B0008ED
:10201000544350204552524F5220202020000000AF
:102020004349504D4F4445204552524F5200000005
:1020300043495053454E44204552524F52000000F0
:1020400000BFFEE770472DE9F0410246002500265B
:10205000002000230024002791F803C00CF00F0596
:1020600091F803C00CF0100CBCF1000F03D091F8F4
:1020700002C04CEA050591F800C0BCF1000F31D058
:10208000146800202BE04FF0010C0CFA00F3B1F8BB
:1020900000C00CEA03069E4220D183004FF00F0CD3
:1020A0000CFA03F7BC4305FA03FC4CEA040491F86C
:1020B00003C0BCF1280F06D14FF0010C0CFA00FC54
:1020C000C2F814C00AE091F803C0BCF1480F05D172
:1020D0004FF0010C0CFA00FCC2F810C0401C08289C
:1020E000D1D31460B1F800C0BCF1FF0F34DD5468E7
:1020F00000202EE000F1080C4FF0010808FA0CF364
:10210000B1F800C00CEA03069E4221D183004FF0D3
:102110000F0C0CFA03F7BC4305FA03FC4CEA040469
:1021200091F803C0BCF1280F05D100F1080C08FAA2
:102130000CF8C2F8148091F803C0BCF1480F07D125
:1021400000F1080C4FF0010808FA0CF8C2F81080F2
:10215000401C0828CED35460BDE8F0810246002020
:1021600093680B400BB1012000E0002070474161F3
:1021700070470161704700BFFEE770B5024600245A
:10218000002500230020958A138B1B0445EA0306D3
:1021900026F07F4404EA01068E4201D1012000E0CE
:1021A000002070BD21B1028842F00102028004E0EB
:1021B00002884FF6FE731A400280704700B585B062
:1021C0000121480500F098FC0121082000F0B4FC32
:1021D000C020ADF8000003208DF802001C208DF80F
:1021E000030069461148FFF72EFF114800F024F85C
:1021F0000020ADF808004BF6FF70ADF80A00302063
:10220000ADF80C004FF48060ADF80E000001ADF8A1
:1022100010000848019001210548FFF7C3FF01A9FC
:10222000034800F05BF805B000BD0000000C014061
:1022300000540040801A060010B504460B48844242
:1022400009D10121480500F067FC00214FF400107E
:1022500000F062FC08E00121880500F05DFC00212F
:102260004FF4800000F058FC10BD00000054004006
:1022700021B1028842F48072028004E002884FF6A5
:10228000FF631A400280704721B1028842F4007255
:10229000028004E002884FF6FF531A400280704724
:1022A0000CB50246002000230193009300920B0F0F
:1022B000019321F07F41019B1BB1009B14330093DC
:1022C00003E0090C009B18330093009B1B680B4034
:1022D0000BB1012000E000200CBD00002DE9F0430F
:1022E00085B004460D460026B1460427DFF8CC80B1
:1022F000A6884FF6C0700640684600F02DFCDDF859
:1023000008802F48B8FBF0F01FFA80F946EA09066A
:10231000A68020884FF6FE710840208000262949BB
:10232000286888420CD828684000B8FBF0F087B2D3
:10233000042F00DA04273E4309F10100208427E03E
:10234000E8884BF6FF71884206D1286800EB400010
:10235000B8FBF0F087B209E0286800EBC00101EBA0
:102360000010B8FBF0F087B247F48047C7F30B00CA
:1023700008B947F0010747F4004006434FF4967050
:1023800009FB00F04FF47A7190FBF1F0401C2084BF
:10239000A683208840F00100208026884FF6F53083
:1023A0000640A8886989084306432680A8892989A8
:1023B0000843208105B0BDE8F083000000127A00D8
:1023C00040420F00A086010012B141F0010102E07D
:1023D0004FF6FE731940018270470182704700007A
:1023E00070B504460D4600BF4FF400311C48FFF79E
:1023F00057FF0028F8D101211948FFF739FF00BF26
:1024000018491748FFF7B9FE0028F9D000227821B3
:102410001348FFF7D9FF00BF13491148FFF7ADFE7E
:102420000028F9D021460E48FFF7D7FF00BF0E491C
:10243000891C0B48FFF7A1FE0028F8D02946084860
:10244000FFF7CBFF00BF0849891C0548FFF795FE41
:102450000028F8D001210248FFF716FF70BD0000E8
:1024600000540040010003008200070008B501216C
:102470000C2000F061FB0820ADF8000048208DF82A
:10248000030069460648FFF7DEFD0120ADF80000B5
:1024900048208DF8030069460248FFF7D4FD08BDC7
:1024A00000080140000C014010B5044614B10120A1
:1024B0001D4908701C48007810B301211B48FFF724
:1024C0004DFE20B108211A48FFF748FEC0B90A2086
:1024D00001F010F917480078401C164908700020D8
:1024E0001149087001211148FFF738FE08B9012091
:1024F00010BD08210E48FFF731FE90B90220F7E722
:1025000001210A48FFF72AFE01280AD108210848BC
:10251000FFF724FE012804D1034908700020054973
:1025200008700020E4E70000E3000020000C0140F8
:1025300000080140E200002008B501210C2000F055
:10254000FBFA10208DF803000002ADF80000032014
:102550008DF8020069460D48FFF775FD4FF4805174
:102560000A48FFF706FE10208DF803000120ADF8A1
:10257000000003208DF8020069460548FFF763FD5F
:1025800001210348FFF7F3FD08BD0000000C0140E6
:102590000008014008B501210C2000F0CDFA01200F
:1025A0008DF80200B020ADF8000010208DF8030077
:1025B00069460D48FFF747FD4020ADF80000482070
:1025C0008DF8030069460848FFF73DFD10210648D5
:1025D000FFF7CFFD80210448FFF7C9FD2021024805
:1025E000FFF7C5FD08BD00000008014070B50446B6
:1025F0000D4600262946204601F002FC06463046DC
:1026000070BD00BFFEE7704770B5002100230F22A8
:10261000C47804B3154C246804F4E064C4F5E064A1
:10262000210AC1F10403CA40447804FA03F1847812
:102630001440214309010E4C0678A155047804F09A
:102640001F050124AC4005786D11AD0005F1E025B2
:10265000C5F8004109E0047804F01F050124AC40EE
:10266000044D0678761145F8264070BD0CED00E06B
:1026700000E400E080E100E002490143024A116009
:10268000704700000000FA050CED00E010B50020D6
:1026900000F03BF810BD2DE9F05F06460F4690466E
:1026A0001C46DDF828A04FF0000BE11704EB517138
:1026B000C910A4EBC10131B92046E11704EB5171F7
:1026C000C1F3C70506E02046E11704EB5171C910BC
:1026D000491CCDB23D4614E02946304600F08FF843
:1026E000B1460AE059460BF1010B1AF8010000F05F
:1026F000BAFF09F1010000F0FF09C145F2DB681CD7
:10270000C5B2A542E8DBBDE8F09F70B506460024DF
:1027100015E004F1B001C8B200F09EFF002000F007
:102720009BFF102000F098FF002504E0304600F0E9
:102730009AFF681CC5B2802DF8DB601CC4B2082C5F
:10274000E7DB70BD10B5FFF739FD642000F0D2FF64
:10275000AE2000F081FF202000F07EFF102000F06E
:102760007BFFB02000F078FFC82000F075FF00204C
:1027700000F072FF102000F06FFF402000F06CFFAF
:10278000812000F069FFFF2000F066FFA12000F02B
:1027900063FFA62000F060FFA82000F05DFF3F204F
:1027A00000F05AFFA42000F057FFD32000F054FFA0
:1027B000002000F051FFD52000F04EFFF02000F087
:1027C0004BFFD92000F048FF222000F045FFDA201F
:1027D00000F042FF122000F03FFFDB2000F03CFF42
:1027E000202000F039FF8D2000F036FF142000F08B
:1027F00033FFAF2000F030FFFFF748FF10BD70B58A
:1028000004460D4605F1B001C8B200F025FF1021C5
:1028100041EA141000F020FF04F00F0141F0010024
:1028200000F01AFF70BD0FB400B59BB01EA8019058
:1028300002A8019A1D99FDF72BFD002001909DF83B
:1028400072309DF871109DF8700002AA00F004F833
:102850001BB05DF814FB00002DE9F04706468946E1
:1028600017469A464FF0000800240025BAF1010FE0
:1028700003D0BAF1020F5ED125E020E0785D203868
:1028800000F0FF087E2E04DD002609F1010000F0B3
:10289000FF0949463046FFF7B2FF002409E008EB84
:1028A0004801264A02EB4101085D00F0DCFE601C95
:1028B000C4B2062CF3DBB01DC6B2681CC5B2785D8D
:1028C0000028DBD137E032E0785D203800F0FF08E7
:1028D000782E04DD002609F1020000F0FF094946C8
:1028E0003046FFF78CFF002407E004EB0811144A80
:1028F000505C00F0B8FE601CC4B2082CF5DB09F196
:102900000100C1B23046FFF77AFF002408E004EB73
:10291000081108310A4A505C00F0A5FE601CC4B2E0
:10292000082CF4DB06F10800C6B2681CC5B2785D5D
:102930000028C9D100BF00BFBDE8F087784000087B
:10294000A04200081CB500244048007C012802D1A8
:1029500000203E4908743D48407C01286CD100208D
:102960003A4948740120FFF79FFD012864D1384897
:102970000078642860DB0120FFF70AFA00F010FEFF
:10298000FFF784FE33480068019033A10198FFF7F8
:102990004AFF32E036A0FFF741FA40B12D48001D52
:1029A0000068009033A10098FFF73DFF26E029481A
:1029B00008300068009031A10098FFF734FF00BF95
:1029C0002248C07C012818D100202049C8742D4815
:1029D0000078401C2B4908702B4804600CB901207A
:1029E00000E000200446274800780A2805D101208D
:1029F000FFF7CEF9002023490870CBE700BFFFF7AF
:102A0000CFFA05201F49087020480021C1630164E6
:102A10004164FFF73BFE1E48042320220021009062
:102A20000846FFF738FE1B480823202204210090A7
:102A30000020FFF730FE00BF0448807C012804D14D
:102A400000200249887400F059FF1CBD7C00002062
:102A5000E2000020984B000857616974696E672096
:102A6000666F722057694669206C696E6B000000C2
:102A7000474F5400545255452000000046414C53E6
:102A800045000000E4000020B08121423400002015
:102A9000904A0008104B00082DE9F04107460C460B
:102AA0001546002621463846FFF7A0FD061E13D026
:102AB0002046FDF795FD0644324608A12846FDF75D
:102AC00005FC0520064908702A46214605A001F0AC
:102AD000B9F92046BDE8F0810020FBE7257300002E
:102AE000E4000020CAD5B5BD2573D0C5CFA23A25D4
:102AF000730A00007047000029B1064AD2690243F8
:102B0000044BDA6104E0034AD2698243014BDA6183
:102B1000704700000010024029B1064A12690243C2
:102B2000044B1A6104E0034A12698243014B1A61A3
:102B3000704700000010024029B1064A9269024322
:102B4000044B9A6104E0034A92698243014B9A6103
:102B5000704700000010024030B500210022002420
:102B600000232D4D6D6805F00C0121B1042905D01D
:102B7000082923D105E0294D056022E0274D056095
:102B80001FE0254D6D6805F47012234D6D6805F446
:102B90008034022505EB92421CB9214D5543056056
:102BA0000BE01D4D6D6805F400351DB11C4D5543FE
:102BB000056002E0194D5543056002E0174D0560C0
:102BC00000BF00BF144D6D6805F0F0010909154DF7
:102BD0006B5C0568DD4045600F4D6D6805F4E06194
:102BE000090A104D6B5C4568DD4085600A4D6D68D3
:102BF00005F46051C90A0B4D6B5C4568DD40C5604A
:102C0000054D6D6805F44041890B074D6B5CC56847
:102C1000B5FBF3F5056130BD0010024000127A00EB
:102C200000093D00140000202400002070B5044677
:102C30000025002624E004F0800020B12021124865
:102C4000FFF797FA03E020210F48FFF790FA802161
:102C50000D48FFF78EFA6006040E00BF00BF00BFEC
:102C600000BF6806050E40210748FFF777FA08B154
:102C700045F0010580210448FFF779FA701CC6B2BF
:102C8000082ED8DB284670BD00080140704710B5FB
:102C900000F002F810BD00000CB50020019000907B
:102CA0003348006840F480303149086000BF304844
:102CB000006800F4003000900198401C01900098DA
:102CC00018B90198B0F5A06FF1D12948006800F457
:102CD000003010B10120009001E000200090009829
:102CE000012843D12348006840F0100021490860C2
:102CF0000846006820F0030008600846006840F0BD
:102D0000020008601A48406819494860084640684F
:102D100048600846406840F4806048600846406863
:102D200020F47C1048600846406840F4E810486091
:102D30000846006840F08070086000BF0C480068DA
:102D400000F000700028F9D00948406820F0030026
:102D5000074948600846406840F00200486000BFEC
:102D60000348406800F00C000828F9D10CBD0000B1
:102D70000010024000200240042808D14FF0E0215A
:102D8000096941F004014FF0E022116107E04FF0C2
:102D9000E021096921F004014FF0E0221161704740
:102DA0007047000010B51348006840F00100114959
:102DB000086008464068104908400E4948600846C7
:102DC00000680E4908400B4908600846006820F476
:102DD000802008600846406820F4FE0048604FF4F8
:102DE0001F008860FFF753FF4FF000600449086040
:102DF00010BD0000001002400000FFF8FFFFF6FECB
:102E000008ED00E010B540F2CF21632000F038F863
:102E100010BD000010B50121174800F070F800281F
:102E200028D00121144800F05BF801201349086004
:102E3000087408464068401E486008464068C8B9A3
:102E40000A20486008468068401E88600120487457
:102E50000846806870B90A2088600846C068401E2D
:102E6000C860012088740846C06818B90A20C86084
:102E70000120C87410BD0000000400407C00002048
:102E80007FB505460C4601210220FFF735FEADF85F
:102E90000850ADF804400020ADF80A00ADF8060077
:102EA00001A90E4800F046F8012211460B4800F037
:102EB00037F81D208DF8000000208DF80100032058
:102EC0008DF8020001208DF803006846FFF79CFB97
:102ED0000121024800F007F87FBD00000004004017
:102EE000CA430282704721B1028842F00102028087
:102EF00004E002884FF6FE731A400280704730B536
:102F00000246002000230024158A05EA0103958962
:102F100005EA010413B10CB1012000E0002030BD2E
:102F20001AB183890B43838102E083898B438381B8
:102F300070470000002202881D4B98420ED01D4BA6
:102F400098420BD0B0F1804F08D01B4B984205D06F
:102F50001A4B984202D01A4B984204D14FF68F7305
:102F60001A404B881A43174B984207D0164B984289
:102F700004D04FF6FF431A40CB881A4302808B8857
:102F800083850B8803850A4B98420BD0094B9842E6
:102F900008D00E4B984205D00D4B984202D00D4BF5
:102FA000984201D10B7A0386012383827047000087
:102FB000002C0140003401400004004000080040A3
:102FC000000C004000100040001400400040014090
:102FD000004401400048014010B540F225512D4801
:102FE00000F0AEF8002853D02A4800F065F9C4B2CA
:102FF0002948007804283ADA2748007830B10128B7
:1030000010D002281AD0032830D123E0632C05D138
:1030100021480078401C2049087002E000201E4929
:10302000087023E06F2C05D11B480078401C1A491A
:10303000087002E000201849087017E0642C05D1E0
:1030400015480078401C1449087002E0002012491D
:1030500008700BE0652C05D10F480078401C0E4924
:10306000087002E000200C49087000BF10E00B4817
:10307000008840F400400949088008460088C0F3F1
:103080000D0007490C5405480088401C034908807E
:1030900010BD000000380140320000203000002048
:1030A000E80000201D49098801F0200111B31B49E7
:1030B000091D0988C8B21A49098801F40041C9B933
:1030C0001749098801F4804161B10A2803D0002121
:1030D000134A118020E01249098841F40041104A46
:1030E000118019E00D2806D10D49098841F480416D
:1030F0000B4A118010E00A490988C1F30D01094A01
:10310000505407490988491C054A1180114609880D
:10311000C72901DD002111807047000000480040F0
:1031200090000020D80B002021B1828942F4005287
:10313000828104E082894DF6FF731A4082817047D4
:1031400070B50246002400230025002040F66A16D0
:10315000B14200D100BFC1F3421501F01F030126A7
:1031600006FA03F3012D02D19689334006E0022DC1
:1031700002D1168A334001E0968A33400C120126B0
:1031800006FA04F41688344013B10CB1012000E0B3
:10319000002070BDF0B50346002400260025002065
:1031A00040F66A17B94200D100BF1846C1F3421475
:1031B00001F01F06012707FA06F5012C01D10C309A
:1031C00004E0022C01D1103000E014301AB107687D
:1031D0002F43076002E00768AF430760F0BD0000BF
:1031E0002DE9F04786B005460E460024A24600BFF2
:1031F000A1460027B08900B100BF2F462C8A4CF6AB
:10320000FF700440F08804432C82AC894EF6F31022
:103210000440B08831890843718908430443AC8174
:10322000AC8A4FF6FF400440B0890443AC8201A849
:10323000FFF792FC1F48874202D1DDF810A001E0A1
:10324000DDF80CA0A88900F4004040B10AEBCA00E8
:1032500000EB0A1031684900B0FBF1F807E00AEB17
:10326000CA0000EB0A1031688900B0FBF1F8642055
:10327000B8FBF0F004012009642101FB1089A88942
:1032800000F4004040B1322000EBC900B0FBF1F087
:1032900000F00700044308E0322000EB091064212D
:1032A000B0FBF1F000F00F0004432C8106B0BDE844
:1032B000F08700000038014001468888C0F308000C
:1032C000704700BFFEE7000010B50446214610A07D
:1032D000FCF7F0FF240300F005F900F09DF8002052
:1032E0000D4908602020FFF7A1FCC4F30740FFF759
:1032F0009DFCC4F30720FFF799FCE0B2FFF796FCB2
:1033000001200649C1F8900100F086F810BD0000C8
:1033100066653A25780D0A0090012142000021429D
:1033200010B5012004490860FFF734F900F030F8C7
:103330000249088010BD000090012142E0000020F9
:103340002DE9F04106460C46174600200F4908605B
:103350000320FFF76BFCC4F30740FFF767FCC4F3DF
:103360000720FFF763FCE0B2FFF760FC002505E0F3
:10337000FF20FFF75BFC7055681C85B2BD42F7DB90
:10338000012002490860BDE8F0810000900121425F
:1033900010B500240020104908609020FFF746FC7B
:1033A0000020FFF743FC0020FFF740FC0020FFF760
:1033B0003DFCFF20FFF73AFC44EA0024FF20FFF722
:1033C00035FC044301200549C1F89001214604A0C1
:1033D00000F038FD204610BD90012142000021423E
:1033E0000D0A49443D305825780D0A0010B50024D7
:1033F0000020074908600520FFF718FCFF20FFF7B1
:1034000015FC044601200349C1F89001204610BD77
:10341000900121420000214210B500BFFFF7E6FFF6
:1034200000F001000028F9D110BD00002DE9F05F87
:1034300081460F461646DFF8A8B04FEA1738C7F3A3
:103440000B0ACAF58054A64200DC344644E04FEA39
:1034500008314FF480525846FFF772FF002508E00C
:103460000AEB05001BF80000FF2800D003E0681CF1
:1034700085B2A542F4DB00BFA54216DA4046FFF74D
:1034800023FF002507E019F8050005EB0A010BF8FA
:103490000100681C85B2A542F5DB4FEA08314FF404
:1034A0008052584600F02EF804E02246394648463D
:1034B00000F028F8A64200D10FE008F101084FF013
:1034C000000AA1442744301B86B2B6F5805F02DDB6
:1034D0004FF4805400E03446B9E700BFBDE8F09FE8
:1034E000A00C002010B50020044908600620FFF75A
:1034F0009DFB01200249C1F8900110BD90012142BD
:10350000000021422DE9F04107460E461446F0B274
:10351000C0F58075AC4200DC254612E02A463146F3
:10352000384600F013F8AC4200D10BE02F442E4493
:10353000601B84B2B4F5807F02DD4FF4807500E03B
:103540002546EBE700BFBDE8F08100002DE9F04122
:1035500006460C461746FFF7C5FF00200F490860D6
:103560000220FFF763FBC4F30740FFF75FFBC4F3E0
:103570000720FFF75BFBE0B2FFF758FB002504E0F4
:10358000705DFFF753FB681C85B2BD42F8DB01207C
:1035900002490860FFF740FFBDE8F0819001214239
:1035A0003EB500242BE0FFF771F8012C04D0022C6B
:1035B0000AD0032C1AD110E014480068029014A11C
:1035C0000298FFF730F912E01048001D00680190E2
:1035D00015A10198FFF727F909E00C4808300068A9
:1035E000009017A10098FFF71EF900E000BF00BF90
:1035F0004FF47A7000F07EF80120FEF7C9FB2046F8
:10360000FEF734FC041ECED13EBD0000A84B0008DE
:103610004D6F64756C65206E6F7420636F6E6E65A0
:1036200063746564202000004D6F646520736574C9
:1036300074696E67206661696C65642020200000F3
:103640005769466920636F6E6E656374696F6E209B
:103650006661696C6564000010B50446214600206F
:10366000FEF7BEFE10BD10B5044621464020FEF711
:10367000B7FE10BD490050EAC12018BF04204A0D12
:1036800018BF40F0010040F2FF72B2EB515F08BF7B
:1036900040F00200012808BF0520704730380A2892
:1036A00001D2012070470020704700BF7047000022
:1036B00010B56FF00400FFF75FFB0A4800680A4985
:1036C000B0FBF1F0094908700846007800EB4001B2
:1036D000C1EBC0104FF6FF7101EAC0000449088039
:1036E00010BD00000000002000127A002800002019
:1036F0002A0000200146114A12884A434FF0E02375
:103700005A6100229A611A46126942F001021A6156
:1037100000BF4FF0E022106900F001021AB100F47E
:103720008032002AF5D04FF0E022126922F0010227
:103730004FF0E0231A6100229A6170472A000020AE
:103740002DE9FF410F4616461D460024A0460020E5
:1037500028606860A86031463846FEF747FF041EBF
:1037600025D03046FCF73CFF801C044400BF00BF5E
:1037700020782C2802D020787D2800D108E02078FD
:1037800005F80800641C08F1010000F0FF08EFE7ED
:1037900000BF2A4607A10098FFF745F82A463146A0
:1037A00006A000F04FFB012004B0BDE8F08100202E
:1037B000FAE70000252D313173000000CAD5B5BDF0
:1037C0002573D0C5CFA23A25730A000000BF054A71
:1037D000128802F04002002AF9D0C2B2014B1B1D30
:1037E0001A807047003801401CB500243148007829
:1037F0000A285CDB0120FEF7CBFAFFF7D1FEFEF7CB
:1038000045FF2D48006801902CA10198FFF70BF8A7
:1038100032E030A0FEF702FB40B12748001D0068EF
:1038200000902DA10098FEF7FEFF26E02248083008
:10383000006800902AA10098FEF7F5FF00BF2A4813
:10384000C07C012818D100202749C8742748007877
:10385000401C26490870264804600CB9012000E08D
:1038600000200446214800780A2805D10120FEF7EF
:103870008FFA00201D490870CBE700BFFEF790FBD0
:1038800005201A490870FEF701FF1A480423202278
:10389000002100900846FEF7FEFE1748082320226C
:1038A000042100900020FEF7F6FE01201CBD002040
:1038B000FCE70000E2000020CC4B0008576169746F
:1038C000696E6720666F722057694669206C696E61
:1038D0006B000000474F5400545255452000000033
:1038E00046414C53450000007C000020E4000020CD
:1038F000B0812142904A0008104B000870B50024A6
:1039000000254748008800F4004000287ED00020B1
:1039100043490880434944A000F094FA45A1414836
:10392000FEF764FE041E14D04348421CC16943A044
:10393000FCF7C0FC404890F83C0070B94FF47A7036
:10394000FFF7D8FE3C48421C016A3CA0FCF7B2FCE1
:1039500003E0344945A0FCF7ADFC46480168314816
:10396000FEF744FE041E2AD01E2142481030FCF708
:1039700078FE1E213F482E30FCF751FE241D002505
:1039800006E021783B4810304155641C681CC5B2E4
:1039900020783A28F5D1641C002506E021783548C6
:1039A0002E304155641C681CC5B220783B28F5D1E7
:1039B000304A2E32A2F11E012FA000F043FA2D480A
:1039C0001D4A0D32C1681748FFF766F82949C968D2
:1039D000884202D10220184908702648164A521C13
:1039E00081681048FFF758F822498968884211D148
:1039F00011480021C1630164416401200E4908702F
:103A0000084690F83C1000F13C0200E006E023A0DC
:103A100000F018FAC8210348FCF701FE70BD000051
:103A200090000020D80B002050435F52583D257372
:103A30000D0A0000687562003400002047455420DC
:103A40002F25733D257320485454502F312E310AB1
:103A5000486F73743A6170692E62696C6962696C4F
:103A6000692E636F6D0A0A0A0000000025730D0AB3
:103A70000A00000094000020CAD5B5BD5769466908
:103A8000D0C5CFA220737369643D25732C70617318
:103A900073776F72643D25730A000000424C424CFC
:103AA0002E76616C75652E76696577C7E5BFD50A98
:103AB000424C424C2E76616C75652E766965775B5B
:103AC000305D3A25630A2C424C424C2E76616C756F
:103AD000652E766965773A25730000001CB5184895
:103AE000008800F4004050B30020154908801549B3
:103AF0000870154800680190144800F1300314491B
:103B0000826A0198FFF71CFE104890F83C0060B9EB
:103B10000D48001D006800900C4800F13C030C4962
:103B2000C26A0098FFF70CFE00BF094909A000F027
:103B300089F94FF4FA610648FCF771FD00BF1CBD1E
:103B40003000002032000020904B0008340000209C
:103B5000E800002055534152545F52585F42554689
:103B60003A25730A0000000088B0002400250026D2
:103B70000220FEF781FDFEF7DFFCFFF799FDFEF75F
:103B8000E1FD4FF4E13000F085F94FF4E1312420FC
:103B900000F0D0F9FFF736F9FEF768FC63207249B0
:103BA0000870FFF7BDFB07E070480068029070A145
:103BB0000298FEF738FE00BFFFF7EAFB4EF61771DA
:103BC0008842F1D100F004FA0E22002103A8FFF789
:103BD000B7FB6BA103A8FCF76BFD28B10120FEF732
:103BE000D7F8FFF7DDFC4BE0FEF750FD5F48001D06
:103BF0000068029065A10298FEF715FE3DE069A0FD
:103C0000FEF70CF940B1594808300068019066A1F0
:103C10000198FEF708FE31E054480C30006801902E
:103C200063A10198FEF7FFFD00BF0120FEF73CFCF9
:103C3000012803D1FFF7D8FD00B11FE05E48C07C2A
:103C400001281AD100205C49C874FFF757FE5B4871
:103C50000078401C59490870594804600CB901208B
:103C600000E000200446554800780A2805D10120CC
:103C7000FEF78EF8002051490870C0E700BF00BF72
:103C8000FEF78EF901204F49087005204B49087056
:103C900069E0FEF757FE4848C07C012863D1002048
:103CA0004549C874FFF71AFF454804600CB9012064
:103CB00000E00020044641480078401C3F4908705D
:103CC0000846007805284EDB3E480078012802D0DF
:103CD000022846D12FE095B90125FEF7D7FC3A48D6
:103CE00004232022002100900846FEF7D4FC374828
:103CF00008232022042100900020FEF7CCFC7EB98E
:103D00003048421CC16932A0FCF7D4FA2D4890F823
:103D10003C0008B901260DE000202849087009E0A0
:103D20002848421C016A2AA0FCF7C4FA0026002099
:103D30002249087016E0012D12D10025FEF7A6FCDD
:103D4000214804232022002100900846FEF7A3FC0E
:103D50001E4808232022042100900020FEF79BFC2F
:103D600000E000BF00BF94E732000020D84B0008FD
:103D70005732355131323820436865636B2021005A
:103D800057694669206973207365740057616974C7
:103D9000696E6720666F722057694669206C696E8C
:103DA0006B000000474F540054525545200000005E
:103DB00046414C53450000007C000020E4000020F8
:103DC000B081214234000020904A0008104B0008C6
:103DD000474554202F25733D257320485454502FB8
:103DE000312E310A486F73743A6170692E62696CC2
:103DF0006962696C692E636F6D0A0A0A000000002F
:103E00002DE9F04706460F46344616E0A0463D46EB
:103E100007E008F101086D1C287810B92046BDE8BC
:103E2000F08798F80000FCF726FA81462878FCF71E
:103E300022FA8145EDD0641C00BF20780028E5D12E
:103E400000BFECE70FB438B505A800900F48009A02
:103E50000499FCF71DFA002000900C48FCF7C0FB09
:103E600085B200240DE000BF0948008800F0400042
:103E70000028F9D00548005D0549091D0880601C2F
:103E800084B2AC42EFDB38BC5DF814FBB80800200C
:103E90000048004010B586B00446012144F20400F9
:103EA000FEF74AFE4FF40070ADF8140003208DF8C1
:103EB000160018208DF8170005A91C48FEF7C3F856
:103EC0004FF48060ADF8140004208DF8170005A9A8
:103ED0001648FEF7B8F825208DF8000003208DF86D
:103EE00001008DF8020001208DF803006846FEF7FE
:103EF0008BFB01940020ADF80800ADF80A00ADF886
:103F00000C00ADF810000C20ADF80E0001A9084817
:103F1000FFF766F9012240F225510548FFF73AF90B
:103F200001210348FFF700F906B010BD0008014069
:103F30000038014038B505460C462148806940F0FC
:103F400008001F4988611F48006820F47F401D4910
:103F500008600846006840F40B4008601848C069D3
:103F600040F480201649C8610846006940F480206A
:103F700008610846006920F48020086112486843FF
:103F8000B0FBF4F011490880081D008842F20C01D2
:103F900008430E49091D08800846008840F02000AB
:103FA000088027208DF8000003208DF801008DF88F
:103FB000020001208DF803006846FEF725FB38BD9E
:103FC00000100240040C014040420F00084800402D
:103FD00008B501210820FEF7AFFD10208DF8030081
:103FE0000220ADF8000003208DF802006946094860
:103FF000FEF729F802210748FEF7B9F86420FFF719
:1040000079FB02210348FEF7B4F86420FFF772FB46
:1040100008BD0000000C014010B500290AD0087846
:10402000002807D005487844FCF742FB002801D05F
:10403000002010BD0248784410BD00004A0D000069
:10404000420D000010B500290AD00878002807D0DA
:1040500005487844FCF72CFB002801D0002010BD57
:104060000248784410BD00002E0E0000260E00000D
:10407000FCF74CBEFCF780BF000000000000000011
:10408000002F000000000700070000147F147F14B9
:1040900000242A7F2A12006264081323003649553F
:1040A000225000000503000000001C224100000017
:1040B00041221C000014083E08140008083E0808AD
:1040C000000000A060000008080808080000606008
:1040D0000000002010080402003E5149453E000047
:1040E000427F4000004261514946002141454B3129
:1040F000001814127F10002745454539003C4A49F5
:104100004930000171090503003649494936000666
:104110004949291E000036360000000056360000CE
:104120000008142241000014141414140000412249
:10413000140800020151090600324959513E007C21
:104140001211127C007F49494936003E414141220B
:10415000007F4141221C007F49494941007F0909F4
:104160000901003E4149497A007F0808087F0000A4
:10417000417F4100002040413F01007F081422415F
:10418000007F40404040007F020C027F007F040817
:10419000107F003E4141413E007F09090906003E73
:1041A0004151215E007F091929460046494949319C
:1041B0000001017F0101003F4040403F001F2040BF
:1041C000201F003F4038403F00631408146300077D
:1041D0000870080700615149454300007F414100D4
:1041E00000552A552A55000041417F000004020174
:1041F0000204004040404040000001020400002052
:1042000054545478007F484444380038444444208F
:1042100000384444487F00385454541800087E093C
:1042200001020018A4A4A47C007F08040478000004
:10423000447D4000004080847D00007F10284400C1
:104240000000417F4000007C04180478007C0804D2
:10425000047800384444443800FC2424241800180E
:10426000242418FC007C08040408004854545420FA
:1042700000043F444020003C4040207C001C204083
:10428000201C003C4030403C004428102844001CC6
:10429000A0A0A07C004464544C44141414141414BE
:1042A000000000000000000000000000000000000E
:1042B000000000F8000000000000003330000000A3
:1042C00000100C06100C06000000000000000000AA
:1042D00040C07840C0784000043F04043F0404001C
:1042E000007088FC08300000001820FF211E00002C
:1042F000F008F000E018000000211C031E211E0041
:1043000000F00888700000001E21232419272110C6
:1043100010160E0000000000000000000000000069
:10432000000000E018040200000000071820400010
:1043300000020418E0000000004020180700000000
:10434000404080F0804040000202010F0102020064
:10435000000000F0000000000101011F0101010048
:10436000000000000000000080B0700000000000AD
:104370000000000000000000000101010101010136
:1043800000000000000000000030300000000000CD
:1043900000000000806018040060180601000000A2
:1043A00000E010080810E000000F102020100F009F
:1043B000001010F8000000000020203F2020000026
:1043C000007008080888700000302824222130007E
:1043D00000300888884830000018202020110E0086
:1043E0000000C02010F8000000070424243F24002F
:1043F00000F80888880808000019212020110E0004
:1044000000E0108888180000000F112020110E0015
:1044100000380808C83808000000003F000000000D
:104420000070880808887000001C222121221C00CE
:1044300000E010080810E0000000312222110F00F7
:10444000000000C0C000000000000030300000008C
:1044500000000080000000000000806000000000FC
:104460000000804020100800000102040810200015
:104470004040404040404000040404040404040060
:1044800000081020408000000020100804020100F5
:10449000007048080808F0000000003036010000F5
:1044A000C030C828E810E0000718272423140B00A8
:1044B0000000C038E0000000203C23020227382022
:1044C00008F8888888700000203F202020110E0006
:1044D000C0300808080838000718202020100800FD
:1044E00008F808080810E000203F202020100F00E6
:1044F00008F88888E8081000203F202023201800B2
:1045000008F88888E8081000203F20000300000019
:10451000C03008080838000007182020221E0200BA
:1045200008F808000008F808203F210101213F2079
:10453000000808F8080800000020203F20200000A4
:1045400000000808F8080800C08080807F00000094
:1045500008F888C028180800203F200126382000CD
:1045600008F8080000000000203F20202020300034
:1045700008F8F800F8F80800203F003F003F20004E
:1045800008F830C00008F808203F200007183F0056
:10459000E01008080810E0000F10202020100F0085
:1045A00008F808080808F000203F21010101000078
:1045B000E01008080810E0000F18242438504F00BD
:1045C00008F8888888887000203F2000030C30207D
:1045D00000708808080838000038202121221C00BB
:1045E000180808F8080818000000203F2000000004
:1045F00008F808000008F808001F202020201F00ED
:104600000878880000C83808000007380E0100004C
:10461000F80800F80008F800033C0700073C030016
:10462000081868808068180820302C03032C30207C
:104630000838C800C83808000000203F20000000EB
:1046400010080808C8380800203826212020180043
:10465000000000FE020202000000007F4040400017
:10466000000C30C000000000000000010638C0004F
:1046700000020202FE000000004040407F000000F7
:10468000000004020202040000000000000000001C
:10469000000000000000000080808080808080801A
:1046A0000002020400000000000000000000000002
:1046B00000008080808000000019242222223F20F8
:1046C00008F8008080000000003F112020110E003B
:1046D0000000008080800000000E112020201100CA
:1046E000000000808088F800000E112020103F207C
:1046F0000000808080800000001F22222222130000
:10470000008080F0888888180020203F202000004A
:104710000000808080808000006B949494936000FF
:1047200008F8008080800000203F210000203F200A
:1047300000809898000000000020203F202000000A
:10474000000000809898000000C08080807F0000FA
:1047500008F8000080808000203F24022D302000D7
:10476000000808F8000000000020203F2020000082
:104770008080808080808000203F20003F20003F9C
:104780008080008080800000203F210000203F20AA
:104790000000808080800000001F202020201F005B
:1047A000808000808000000080FFA12020110E008A
:1047B0000000008080808000000E112020A0FF807B
:1047C000808080008080800020203F212000010028
:1047D000000080808080800000332424242419007D
:1047E000008080E0808000000000001F202000008A
:1047F0008080000000808000001F202020103F20CB
:10480000808080000080808000010E30080601005A
:1048100080800080008080800F300C030C300F00FF
:1048200000808000808080000020312E0E3120002A
:10483000808080000080808080818E70180601005A
:1048400000808080808080000021302C2221300078
:1048500000000000807C020200000000003F404099
:1048600000000000FF00000000000000FF0000004A
:104870000002027C800000000040403F0000000079
:104880000006010102020404000000000000000014
:10489000000000000000000000000000C0E0F0F098
:1048A000F87C7C3E3E1E1E1F0F060280C0E0F0F822
:1048B000FCFCFEFEFEFFFFFFFFFFFEFEFEFCFCF821
:1048C000F8F0E0C000000000000000000000000060
:1048D000000000000000000000F0FCFFFF1F0701C7
:1048E0000100000000000000C0F8FEFFFFFFFFFF16
:1048F000FFFFFFFFFFFFFFFFFFFFFFFFFFFFFFFFC8
:10490000FFFFFFFFFFFCF0000000000000000000C0
:104910000000000000000000FFFFFFFF000000009B
:104920000000000000000000FFFFFFFFFFFFFFFF8F
:10493000FFFFFFFFFFFFFFFFFFFFFFFFFFFFFFFF87
:10494000FFFFFFFFFFFFFF7F0000000000000000EF
:10495000000000000000000000071F7FFFF8E0C01B
:104960008000000000000000010F7FFFFFFFFFFF3D
:10497000FFFFFFFFFFFFFFFFFFFFFFFFFFFFFFFF47
:10498000FFFFFFFFFF3F07000000000000000000E6
:10499000000000000000000000000080C1C3E7EF3D
:1049A000FFFFFEFE7C3C1C0800000080C3C3E7EF55
:1049B000FFFFFFFFFFFFFFFFFFFFFFFFFFFFFFFF07
:1049C000EFE7C3C18000000000000000000000000D
:1049D0000000000080C0F0F8FC7E3F1F0F070303BB
:1049E0000101000080E0F0FCFEFEFFFFFFFFFFFF83
:1049F000FFFFFFFFFFFFFFFFFFFFFFFFFFFFFFFFC7
:104A0000FFFFFFFFFFFFFEFCF8F0C080000000008A
:104A100000C0F8FEFF3F0F03000000000000000090
:104A200000C0F8FEFFFFFFFFFFFFFFFFFFFFFFFFDC
:104A3000FFFFFFFFFFFFFFFFFFFFFFFFFFFFFFFF86
:104A4000FFFFFFFFFFFFFFFFFFFFFFFFFEF8C000BC
:104A5000F8FFFFFF0300000000000000000000005E
:104A6000FCFFFFFFFFFFFFFFFFFFFFFFFFFFFFFF59
:104A7000FFFFFFFFFFFFFFFFFFFFFFFFFFFFFFFF46
:104A8000FFFFFFFFFFFFFFFFFFFFFFFFFFFFFFF83D
:104A900000C0E0F0F0F8F8F8F8F8F8F0F0E0800086
:104AA00000C0E0F0F0F8F8F8F8F8F8F0F0E0C00036
:104AB0003FFFFFFFFFFFFFFFFFFFFFFFFFFFFFFFC6
:104AC000FFFFFFFFFFFFFFFFFFFFFFFFFFFFFF7F76
:104AD0000001070F1F3F7FFFFFFFFFFFFFFFFFFFEB
:104AE000FFFFFF1F9F9F9F81F9F9F9838F87810047
:104AF000000000000000000000010307070F1F1F57
:104B00001F0F0F00010101011F1F1F010101010003
:104B1000000000000000008080C0C0E0E0E0E0E0B5
:104B2000E0E0E0E0E0C0C0808000000000000000A5
:104B300000C0E0F8FCFEFFFFFF1F3F7F7F7F7D117D
:104B400001010103030F1FFFFFFFFEFCF8E0C0009F
:104B50000003071F3F7FFFFFFFF8E0C0C080808099
:104B6000808080C0C0E0F8FFFFFF7F3F1F07030089
:104B7000000000000000000101030307070707070A
:104B800007070707070303010100000000000000FA
:104B90002801020028050200100202005806020047
:104BA0005806020010020200100202001002020069
:104BB00010020200100202001002020010020200A5
:104BC0001002020010020200100202001002020095
:104BD00058060200580602004002020010020200BD
:104BE0005806020058060230313233343536373831
:104BF0003941424344454640305800303132333425
:104C00003536373839616263646566403078000450
:104C10000000080000000000000002000100001079
:104C200000000000000000003031323334353637E8
:104C300038396162636465667870003031323334CC
:104C40003536373839414243444546585000000014
:104C500002400000000000A000000000054000002D
:104C6000000000C8000000000C4000000000409C54
:104C700000000000194000000020BCBE0000000041
:104C800034400000BFC91B8E00000004B540000086
:104C9000504BCFD06607E2CF010000006C4100000E
:104CA0003E8251AADFEEA73401000000D942000085
:104CB000DCB5A0E23A301F97FFFFFFFFB4450000CC
:104CC000FD25A0C8E9A3C14FFFFFFFFFFF3F000084
:104CD0000000008000000000FF3F00000000008096
:104CE00000000000782F73706163652F7570737416
:104CF00061743F6D69640000782F72656C6174693E
:104D00006F6E2F737461743F766D696400000000EC
:104D1000782F7765622D696E746572666163652FA1
:104D2000766965773F62766964000000666F6C6C37
:104D30006F776572000000007669657700000000FB
:104D40007373696400000000756964006276000096
:104D50009C4E000800000020E80000002801000828
:104D6000844F0008E80000201822000044010008D9
:104D70001001000043000000F8FFFFFF004040402A
:104D8000404040404040414141414140404040401E
:104D900040404040404040404040404040050202CA
:104DA0000202020202020202020202020220202089
:104DB00020202020202020020202020202029090E5
:104DC00090909090101010101010101010101010E3
:104DD0001010101010101010020202020202888837
:104DE0008888888808080808080808080808080843
:104DF000080808080808080802020202400000002B
:104E000000000000000000000000000000000000A2
:104E10000000000000000000000000000000000092
:104E20000000000000000000000000000000000082
:104E30000000000000000000000000000000000072
:104E40000000000000000000000000000000000062
:104E50000000000000000000000000000000000052
:104E60000000000000000000000000000000000042
:104E70000000000000000000000000000000000032
:104E80001C00000043000000F8FFFFFF0C000000C2
:104E90000E0000000F0000002E00000000A24A04D7
:104EA00000000000000000000102030406070809DA
:104EB00000000000010203040102030406070809C0
:104EC00002040608000000000000000000000000CE
:104ED00000363139313732310000000000314345AE
:104EE00034313150374A680000000000F84C0008A7
:104EF000E44C0008104D00082C4D0008384D000807
:104F000000000000000000000000000000000000A1
:104F10000000000000000000000000000A00000087
:104F20000A0000000A00000000000000000000006D
:104F3000404D000800000000484D00084C4D00089E
:104F400070697465737400000000000000000000C8
:104F500000000000000000000000000000003132EE
:104F600033343536373839000000000000000000C7
:104F700000000000000000000000000017EF00012A
:044F8000000000002D
:04000005080000ED02
:00000001FF
